:020000040000FA
:060000003CEF0BF01200C2
:060800003CEF0BF01200BA
:06082A000100A41600000D
:08083000B1000000040000000B
:08083800040120511F0B01080F
:1008400001E05BD02051600BE842E842E842E84218
:10085000E842010801E051D0245103E0240501E001
:100860004CD02151230A48E0010A40E0030A30E05D
:10087000010A25E0240A22E0070A1FE0010A1CE021
:10088000030A11E0010A01E038D00001030EA66F4F
:100890000001930EA76F000EA86F0001AE93000138
:1008A000080EAB6F2AD00001030EA66F0001930E55
:1008B000A96F000EAA6F21D020D01FD01ED000013A
:1008C000030EA66F0001880EA96F000EAA6F15D047
:1008D0000001030EA66F0001880EA76F000EA86F1F
:1008E0000001AE930001070EAB6F07D00001030EAD
:1008F000A66F22C48FF001D000D012000001886BD7
:10090000C20E896F010E8A6F8B6B8C6B8D6B080E1C
:100910008E6F816B806B1A0E726E1E0E736E0401E9
:10092000000E166F050E176F400E146F0401196F3D
:10093000080E1A6F050E1B6F880E186F0401480E03
:100940001E6F050E1F6F400E1C6F1200D9CFE6FF01
:10095000E1CFD9FF0001806B040118BF30D0FC0E3D
:10096000DBCF02F01951D880025403E2FC0E19C407
:10097000DBFF0001806BFC0EDB50805D19E28051D3
:10098000EA6A080FE96E050EEA22EF50E66E805122
:10099000E76EFD0EDBCFE9FFFE0EDBCFEAFFE7508F
:1009A000E926000EEA22E552E750EF6E802BE3D7EE
:1009B0000401400E196F1817187D880E18130001D6
:1009C000805100D0E552E7CFD9FF1200D9CFE6FF22
:1009D000E1CFD9FFE6520001815101E02FD0DF6A5B
:1009E000DF2ADF50026E036AFF0E021801E1035096
:1009F00001E10BD0FD0EDBCFE9FFDB2AFE0EDBCFE2
:100A0000EAFF01E3DB2AEF50EBE1DF50026E036AFD
:100A1000D950FD0FE96EFF0EDA20EA6E0250EE5E4D
:100A20000350ED5AFD0EDBCF82F0FE0EDBCF83F0DC
:100A3000DFCF86F00001876B010E816FE552E55232
:100A4000E7CFD9FF1200D9CFE6FFE1CFD9FFE652B9
:100A50000001815101E030D0DF6ADF2ADF50026EF1
:100A6000036AFF0E021801E1035001E10CD0FD0EF4
:100A7000DBCFF6FFDB2AFE0EDBCFF7FF01E3DB2A3D
:100A80000800F550EAE1DF50026E036AD950FD0F0D
:100A9000E96EFF0EDA20EA6E0250EE5E0350ED5A68
:100AA000FD0EDBCF82F0FE0EDBCF83F0DFCF86F0D2
:100AB0000001010E876F816FE552E552E7CFD9FF44
:100AC0001200D9CFE6FFE1CFD9FFE65204011CBFE7
:100AD0006BD0030E0001815D01E1816B815101E169
:100AE00063D0020E815D06E104011D6B0001030E5F
:100AF000816F54D0810552E1400E026E036A865127
:100B0000025C000E035803E2400EDF6E02D086C086
:100B1000DFFFDFCF1DF4DF50865D866F480E846FE8
:100B2000050E856F870515E1DF5012E082C0F6FFE4
:100B300083C0F7FF0800F55084C0E9FF85C0EAFFD5
:100B4000EF6E842B000E8523822B8323DF06ECD7E8
:100B500013D0DF5011E082C0E9FF83C0EAFFEF50FD
:100B600084C0E9FF85C0EAFFEF6E842B000E852369
:100B7000822B8323DF06EDD7865110E104011D513E
:100B8000026E036A400E021801E1035004E1000105
:100B9000020E816F03D00001030E816F400E04012D
:100BA0001C171C7D880E1C13E552E552E7CFD9FFB8
:020BB000120031
:0E0BB20004012051600BE842E842E842E842AC
:100BC000E842000901E055D02151070A51E00B0A23
:100BD0004FE0070A40E0010A2CE00B0A28E0020A75
:100BE00026E0030A22E0080A12E0010A0EE00F0ADA
:100BF0000AE0030A01E03CD00001010EA66F0001EB
:100C0000040EAD6F36D036D834D090D832D0000133
:100C1000010EA66F0001AF0EA76F000EA86F0001B6
:100C2000AE930001010EAB6F24D0A8D822D0F4D827
:100C300020D00001010EA66F040124510001A76F0E
:100C4000A86BB00EA727000EA8230001AE930001E9
:100C5000010EAB6F0ED00001010EA66F04012451EE
:100C6000EA6AB00FE96E000EEA2222C4EFFF01D05B
:100C700000D01200800E0401205D57E12351030AC9
:100C800034E0010A10E0030A01E04DD00001010E3A
:100C9000A66F0001D80EA76F140EA86F120E0001E8
:100CA000AB6FAC6B40D00001010EA66F0401225166
:100CB000F66EF76AD890F636F736990EF626150EC8
:100CC000F7220900F5CFA7F00A00F5CFA8F0020E31
:100CD0000001F76AA725F66EA851F7220900F5CFA3
:100CE000ABF00A00F5CFACF01ED00001010EA66FEC
:100CF00004012251F66EF76AD890F636F7369D0E4B
:100D0000F626150EF7220900F5CFA7F00A00F5CF59
:100D1000A8F0A7C0F6FFA8C0F7FF0800F550000133
:100D2000AB6FAC6B00D00001AE8312000001010E6E
:100D3000A66F0F0EE66E710EE66E0F0EE66E57ECA6
:100D40000AF0E552E552E552010EE66EB00EE66E8F
:100D5000000EE66E57EC0AF0E552E552E55222C469
:100D6000AFF00401225104E10001050EAD6F05D082
:100D70000001060EAD6F7EEC04F012000401286B3A
:100D8000296B040120511F0B020A14E0030A0EE034
:100D9000010A01E033D00001010EA66F0401288191
:100DA0000001AEA102D00401288328D00001010E69
:100DB000A66F24D00001010EA66F040124510F0B71
:100DC000080DF350036A000F026E040E0322245133
:100DD000800B01E0010E040DF35000010224A96F05
:100DE000000E0320AA6FA9C0E9FFAAC0EAFFEF50D6
:100DF000040B03E00401010E286F00D00001A605DA
:100E00000AE10001280EA76F040EA86F0001AE933F
:100E10000001020EAB6F12000401220510E1205107
:100E20001F0B00090CE10001010EA66F030E040167
:100E3000215D03E10001AE8102D00001AE91040109
:100E400022513AE120511F0B020836E124510F0BC9
:100E5000000932E00001010EA66F040124510F0BBE
:100E6000080DF350036A000F026E040E0322245192
:100E7000800B01E0010E040DF35000010224A96F64
:100E8000000E0320AA6F030E0401215D07E1840E0A
:100E9000A9C0E9FFAAC0EAFFEF6E0ED024AF06D0CA
:100EA000A9C0E9FFAAC0EAFFEF6A06D0880EA9C070
:0A0EB000E9FFAAC0EAFFEF6E12008E
:060EBA006C5002E0000E86
:100EC00001D0010E00090BE0040100513C0BE84287
:100ED000E8420D0802E10CD801D040D808D06C508F
:100EE00002E0000E01D0010E040901E047D8120013
:100EF000D9CFE6FFE1CFD9FFE6520001A56BA66B83
:100F0000AB6BAC6BD9EC05F0DF6ADF50026E036AA5
:100F1000010E025C000E03581BE20001A65101E025
:100F200017D0F76ADF34FE0BF736F66EA30EF626FF
:100F3000150EF7220900F5CF02F00800F5CF03F0F7
:100F400004D003C0FAFF0250F96EFBDFDF2ADDD7C1
:100F5000DDD8E552E552E7CFD9FF1200020E0001BD
:100F6000A55D0AE196D8040100BD03D0C80E006F4C
:100F700002D0880E006F01D00FD91200040E0001BC
:100F8000AD5D0AE122C46EFF6E50000803E2050E5B
:100F9000AD6F02D0030EAD6F0001A5050AE10BD8BD
:100FA000040104BD03D0C80E046F02D0880E046F84
:100FB00001D0F2D81200D9CFE6FFE1CFD9FF020E5F
:100FC000E1260001080EAB5D000EAC5905E2ABC096
:100FD000DEFFACC0DDFF03D0080EDE6EDD6A04016B
:100FE00004930491010EDB500413DFCF05F4000ECF
:100FF000DB500001AB5F010EDB50AC5B280EA96F2C
:10100000040EAA6F0001AEA31ED0D9CFE9FFDACF3C
:10101000EAFFEE50ED1016E0A7C0F6FFA8C0F7FFFC
:101020000800F550A9C0E9FFAAC0EAFFEF6E000171
:10103000A92B000EAA23A72BA823DF06010E01E28D
:10104000DB06E3D71CD0D9CFE9FFDACFEAFFEE50B9
:10105000ED1015E0A7C0E9FFA8C0EAFFEF50A9C056
:10106000E9FFAAC0EAFFEF6E0001A92B000EAA2338
:10107000A72BA823DF06010E01E2DB06E4D7020E50
:10108000E15C02E2E16AE552E16EE552E7CFD9FFA9
:101090001200D9CFE6FFE1CFD9FF020EE126030E01
:1010A00004010015E76E010EE7CFDBFF01C4DFFF8F
:1010B000DE500001AB27DD50AC23280EA76F040ED5
:1010C000A86FD9CFE9FFDACFEAFFEE50ED1014E0B8
:1010D000A7C0E9FFA8C0EAFFEF50A9C0E9FFAAC076
:1010E000EAFFEF6EA92B000EAA23A72BA823DF0689
:1010F000010E01E2DB06E5D7020EE15C02E2E16AE5
:10110000E552E16EE552E7CFD9FF12000001A6518A
:101110000CE10401080E016F200E026F040E036F34
:10112000840E006F0401046F35D0040120AF22D07B
:101130000001AB510401265D0001AC5104012759A7
:1011400004E226C4ABF027C4ACF035DF0001010E89
:10115000A56F0401080E016F200E026F040E036FCD
:10116000800E006F0401280E066F040E076FC80E74
:10117000046F10D00001020EA56F0401056BC80EAC
:10118000046F0401080E016F280E026F040E036F36
:10119000C80E006F6D9812000001A56B0401080EC7
:1011A000016F200E026F040E036F880E006F0401A2
:0411B000046B1200BA
:0C11B400C294C296C298C29AC280C19830
:1011C000C19AC186C184C182C180C09EC08AC098B4
:1011D000C086C084C082C090B46A92689E9CF29817
:1011E000F296F292F290F18EF19CF19AF198F190D0
:1011F0006590639A936A946ABD9EBD9C6590800ECB
:101200008D6E9568C19AC198C196C194C192C190E2
:10121000966AD58ED59CD59AD598D596D584D58203
:10122000D5801200948E949C710EAF6E020EB06E3B
:10123000240EAC6E900EAB6E080EB86E1200D9CFB5
:10124000E6FFE1CFD9FFE652DF6AC2B253D0000118
:10125000B171C282B25128E1B351B32BEA6A000FD7
:10126000E96E020EEA22C4CFEFFFB351B32BEA6A54
:10127000000FE96E020EEA22C3CFEFFFB351026EF8
:10128000036AFE0E021801E103500DE1B45100089B
:1012900005E2010EDF6EFC0EB36F05D0B36B010EDD
:1012A000B26F0A0EB46F26D0B351B32BEA6A000FA7
:1012B000E96E010EEA22C4CFEFFFB351B32BEA6A05
:1012C000000FE96E010EEA22C3CFEFFFB351026EA9
:1012D000036AFE0E021801E103500CE1B45100084C
:1012E00005E2010EDF6EFC0EB36F04D0B36BB26B80
:1012F0000B0EB46F0001B451000825E200018151CA
:1013000022E10A0E0001B45D0EE10001000E826FC1
:10131000020E836F0001FE0E866F0001876B0001D5
:10132000010E816F0DD00001000E826F010E836FE0
:101330000001FE0E866F0001876B0001010E816FB8
:10134000DF6A0001B46BDF50E8240001B111E81C32
:0C135000816EE552E552E7CFD9FF120094
:04135C006DA60FD893
:1013600002D06DB613D80001AD0508E16DBA06D004
:10137000686A696A69806988020EAD6F12006D6AD9
:10138000696A6D860001010EAD6F12006D6A696AAF
:101390000001AD6B1200C6EF09F00001AD5101E193
:1013A0003AD06850040B04E06950040B01E03CD8CB
:1013B0006DB231D06850010B04E06950010B01E0BF
:1013C00054D86850100B04E06950100B01E024D889
:1013D0006850400B04E06950400B01E03BD8685076
:1013E000200B04E06950200B01E036D86850020B56
:1013F00004E06950020B01E036D8030E0001AD5D38
:1014000001E209D06850080B06E06950080B03E0C0
:101410005DEC07F068961200698468986D82A19A65
:10142000A08A0300A09A12006D9269946894120039
:101430000001AEA10ED0F8DF6D840101080EFE6F31
:10144000070EFF6FFE07000EFF5BFE51FF11FAE172
:101450006D941200689C120070A003D0CCEC08F0D0
:101460007090689A1200689212006A6A686A9F0E09
:101470006B6E7B0E696E6E6A0F0EE66E710EE66E17
:101480000F0EE66E14D8E552E552E552160E706E58
:1014900068A602D06896FCD76D98CCEC08F00001E5
:1014A000AE910001AF6B0001030EAD6F1200D9CFFA
:1014B000E6FFE1CFD9FFFD0EDBCFE9FFFE0EDBCF6C
:1014C000EAFFFC0EDB5004E0EE6AFC0EDB06F9D707
:0814D000E552E7CFD9FF12003D
:0814D8001201000202000008ED
:1014E000D8040A00000001020001090243000201C1
:1014F00000803209040000010202010005240010EE
:10150000010424020205240600010524010001074C
:1015100005820308000209040100020A0000000716
:101520000503024000000705830240000004030990
:101530000434034D006900630072006F00630068AB
:101540000069007000200054006500630068006EB0
:10155000006F006C006F0067007900200049006E8A
:101560000063002E00340343004400430020005277
:101570000053002D00320033003200200045006D82
:101580000075006C006100740069006F006E00203F
:1015900000440065006D006F00EA14EA142D153157
:0515A000156515380877
:0A15A6002A0EF66E080EF76E000E16
:1015B000F86E00010900F550A06F0900F550A16F09
:1015C00003E1A06701D03DD00900F5509B6F0900F1
:1015D000F5509C6F0900F5509D6F09000900F5500A
:1015E000E96E0900F550EA6E090009000900F5509E
:1015F0009E6F0900F5509F6F09000900F6CFA2F019
:10160000F7CFA3F0F8CFA4F09BC0F6FF9CC0F7FF84
:101610009DC0F8FF00019E5302E19F5307E00900BF
:10162000F550EE6E9E07F8E29F07F9D7A2C0F6FFCD
:10163000A3C0F7FFA4C0F8FF0001A007000EA15B44
:04164000BFD71200FE
:0C16440005D810D81FEC09F0FCD71200EC
:101650000F0EC112140E6F6E0001AD6B0001AE6B68
:101660000001AF6BDAEF08F0AEEC09F06FBE02D00C
:08167000CDEC09F061EF05F07B
:0816780013EE00F023EE00F078
:10168000F86A019CD3EC0AF051EC0BF022EC0BF061
:04169000FBD7120072
:0C16940000EE00F00F0EEE6AEA62FDD7D7
:0216A000120036
:0216A200120034
:0416A4000000000042
:00000001FF
