:020000040000FA
:06000000E4EF00F0120025
:02002A000000D4
:04002C0018D8140EBE
:10003000E66EE66A21D8E552E5528290200E836E84
:10004000140EE66EE66A18D8E552E552831E140EC9
:10005000E66EE66A11D8E552E552F8D71200010EB5
:10006000826E92689368FE0E946E0F0E956E966A7D
:10007000836A070E846E1200D9CFE6FFE1CFD9FF65
:10008000020EE126DE6ADD6A00016A6B6B6B6C6B47
:100090006D6B6A6B6B6B6C6B6D6BFD0EDBCF00F089
:1000A000FE0EDBCF01F0640E0102F3CF01F000027F
:1000B000F3CF00F0F4500126026A036A01AE02D0C9
:1000C000026803686D510318E8AE02D0033408D00B
:1000D00000506A5D01506B5902506C5903506D59C4
:1000E0001AE2DE6ADD6ADECF00F0DDCF01F0D890E3
:1000F000015004E6FA0E005C000E015805E2DF2A0A
:10010000010E01E3DB2AEFD700016A2B000E6B23FF
:100110006C236D23C2D7020EE15C02E2E16AE55274
:0A012000E16EE552E7CFD9FF1200AF
:06012A002A0EF66E000E25
:10013000F76E000EF86E00010900F550656F0900BA
:10014000F550666F03E1656701D03DD00900F550B9
:10015000606F0900F550616F0900F550626F09008A
:100160000900F550E96E0900F550EA6E0900090032
:100170000900F550636F0900F550646F090009002C
:10018000F6CF67F0F7CF68F0F8CF69F060C0F6FF00
:1001900061C0F7FF62C0F8FF0001635302E16453DE
:1001A00007E00900F550EE6E6307F8E26407F9D73F
:1001B00067C0F6FF68C0F7FF69C0F8FF0001650778
:0801C000000E665BBFD71200C0
:0801C80013EE00F023EE00F03D
:1001D000F86A059C95EC00F016EC00F0FDD71200D3
:00000001FF
