:020000040000FA
:0600000086EF00F0120083
:02002A000000D4
:04002C002A0EF66E34
:10003000000EF76E000EF86E00010900F550656FB6
:100040000900F550666F03E1656701D03DD00900F6
:10005000F550606F0900F550616F0900F550626F4F
:1000600009000900F550E96E0900F550EA6E090033
:1000700009000900F550636F0900F550646F09002D
:100080000900F6CF67F0F7CF68F0F8CF69F060C0ED
:10009000F6FF61C0F7FF62C0F8FF0001635302E1A1
:1000A000645307E00900F550EE6E6307F8E2640759
:1000B000F9D767C0F6FF68C0F7FF69C0F8FF000115
:0A00C0006507000E665BBFD7120053
:0600CA000F0E956E836A23
:1000D000966A070E846E831E00016A6B6B6B6C6BF5
:1000E0006D6BD8906D51000A08E69F0E6A5D860E12
:1000F0006B59010E6C59000E6D5906E26A2B000E09
:0C0100006B236C236D23EDD7E6D71200B3
:04010C0013EE00F0FE
:1001100023EE00F0F86A019C16EC00F065EC00F0AC
:04012000FDD71200F5
:00000001FF
